:100000000C942A000C943F000C943F000C943F0089
:100010000C943F000C943F000C943F000C943F0064
:100020000C943F000C943F000C943F000C943F0054
:100030000C943F000C943F000C943F000C943F0044
:100040000C943F000C943F000C943F000C943F0034
:100050000C943F0011241FBECFE5D8E0DEBFCDBF1A
:1000600010E0A0E6B0E0E4EDF1E002C005900D92F2
:10007000A839B107D9F70E9441000C94E8000C940C
:1000800000008FEF84BB0E946D00C49860E875E2A9
:1000900080E090E00E947B00C1E00E94C2008C36AC
:1000A00041F40E947600C5BB80E690E00E94AD005E
:1000B000F4CF813641F40E947600C5BB80E790E022
:1000C0000E94AD00EACF843741F70E947600C5BB9D
:1000D0008BE890E00E94AD00E0CF87B3806B87BBD8
:1000E000BE98C49A81E58DB9709808958FB9779BB1
:1000F000FECF8FB108952AB128612AB920B52668AC
:1001000020BDDC01CB01880F991FAA1FBB1F880FE0
:10011000991FAA1FBB1F9C01AD01220F331F441F53
:10012000551F220F331F441F551F60E072E18AE7FD
:1001300090E00E94C600822F815089B9DA01C9017E
:100140000197A109B109892F9A2FAB2FBB2780BD39
:1001500008955D9BFECF8CB908951F93CF93DF93D5
:10016000EC018881882351F010E00E94A9001F5FF4
:10017000FE01E10FF11D80818111F7CFDF91CF9159
:100180001F9108955F9BFECF8CB10895A1E21A2EB6
:10019000AA1BBB1BFD010DC0AA1FBB1FEE1FFF1F2B
:1001A000A217B307E407F50720F0A21BB30BE40B7B
:1001B000F50B661F771F881F991F1A9469F76095C2
:1001C0007095809590959B01AC01BD01CF0108957C
:0401D000F894FFCFD1
:1001D4004C69676874207475726E6564206F6E0074
:1001E40041697220636F6E646974696F6E696E67CA
:1001F400207475726E6564206F6E00545620747599
:08020400726E6564206F6E004C
:00000001FF
