:100000000C942A000C943F000C943F000C943F0089
:100010000C943F000C943F000C943F000C943F0064
:100020000C943F000C943F000C943F000C943F0054
:100030000C943F000C9441000C943F000C943F0042
:100040000C943F000C943F000C943F000C943F0034
:100050000C943F0011241FBECFE5D8E0DEBFCDBF1A
:1000600010E0A0E6B0E0E2E3F2E002C005900D92FD
:10007000A839B107D9F70E9485000C9417010C9498
:1000800000001F920F920FB60F9211242F933F93EF
:100090004F935F936F937F938F939F93AF93BF9390
:1000A000EF93FF930E94F1008C3649F40E949C006C
:1000B00081E085BB80E690E00E94DC0015C08136BF
:1000C00049F40E949C0081E085BB80E790E00E949B
:1000D000DC000AC0843741F40E949C0081E085BBAB
:1000E0008BE890E00E94DC00FF91EF91BF91AF910F
:1000F0009F918F917F916F915F914F913F912F9140
:100100000F900FBE0F901F9018958FEF84BB0E9429
:100110009300C49841E060E875E280E090E00E94BE
:10012000A1007894FFCF87B3806B87BBBE98C49A39
:1001300081E58DB9709808958FB9779BFECF8FB107
:100140000895CF93C42F2AB128612AB920B5266813
:1001500020BDDC01CB01880F991FAA1FBB1F880F90
:10016000991FAA1FBB1F9C01AD01220F331F441F03
:10017000551F220F331F441F551F60E072E18AE7AD
:1001800090E00E94F500822F815089B9DA01C901FF
:100190000197A109B109892F9A2FAB2FBB2780BDE9
:1001A000C13021F480E88BBF80EC8AB9CF910895EB
:1001B0005D9BFECF8CB908951F93CF93DF93EC0125
:1001C0008881882351F010E00E94D8001F5FFE0153
:1001D000E10FF11D80818111F7CFDF91CF911F9148
:1001E00008955F9BFECF8CB10895A1E21A2EAA1B41
:1001F000BB1BFD010DC0AA1FBB1FEE1FFF1FA217D7
:10020000B307E407F50720F0A21BB30BE40BF50BD3
:10021000661F771F881F991F1A9469F7609570955C
:10022000809590959B01AC01BD01CF010895F89494
:02023000FFCFFE
:100232004C69676874207475726E6564206F6E0015
:1002420041697220636F6E646974696F6E696E676B
:10025200207475726E6564206F6E0054562074753A
:08026200726E6564206F6E00EE
:00000001FF
