S00E0000536C617976652E73726563A2
S11300000C942A000C9434000C9434000C943400A6
S11300100C9434000C9434000C9434000C9434008C
S11300200C9434000C9434000C9434000C9434007C
S11300300C9434000C9434000C9434000C9434006C
S11300400C9434000C9434000C9434000C9434005C
S11300500C94340011241FBECFE5D8E0DEBFCDBF21
S11300600E9441000C9458000C94000087B38F74D4
S113007087BBBE9A80E48DB90895779BFECF8FB17C
S113008008958FEF84BB81BB8ABB0E943600D4E005
S113009018E0C1E00E943D008C3611F4D5BBFACFC4
S11300A0813611F4CBBBF6CF8437A1F712BBF2CF64
S10700B0F894FFCFEE
S9030000FC
